:100000000C9499000C94CA000C94CA000C94CA0079
:100010000C94CA000C94CA000C94CA000C94CA0038
:100020000C94CA000C94CA000C94CA000C94CA0028
:100030000C94CA000C94CA000C94CA000C94CA0018
:100040000C94CA000C94CA000C94CA000C94CA0008
:100050000C94CA000C94CA000C94CA000C94CA00F8
:100060000C94CA000C94CA000C94CA000C94CA00E8
:100070000C94CA000C94CA000C94CA000C94CA00D8
:100080000C94CA000C94CA000C94CA000C94CA00C8
:100090000C94CA000C94CA000C94CA000C94CA00B8
:1000A0000C94CA000C94CA000C94CA000C94CA00A8
:1000B0000C94CA000C94CA000C94CA000C94CA0098
:1000C0000C94CA000C94CA000C94CA000C94CA0088
:1000D0000C94CA000C94CA000C94CA000C94CA0078
:1000E0000C94CA000C94DA000C94CE000C94190AFB
:1000F0000C941E060C942E120C946B060C943C0867
:100100000C942D070C947E080C9450060C94330B21
:100110000C94D4000C94E1080C94D2000C94D00000
:100120000C94FF080C94CC000C9482020C942008D0
:100130002E1211241FBECFEFD1E2DEBFCDBF00E0F3
:100140000CBF12E0A0E0B2E0E8E6F7E200E00BBF8F
:1001500002C007900D92A434B107D9F722E0A4E4BD
:10016000B2E001C01D92A33DB207E1F711E0C2E386
:10017000D1E000E006C022970109FE010BBF0E94FA
:100180008712C033D10780E00807A9F70E94530EF9
:100190000C94B2130C9400002E9A08952E98089592
:1001A000A09A0895A0980895EBE0F1E08081806422
:1001B00080830895EBE0F1E080818F7B8083089558
:1001C0001092C50020E12093C400E0ECF0E08081B3
:1001D0008260808396E09093C20088E18093C100A2
:1001E0001092CD002093CC00E8ECF0E0208122605A
:1001F00020839093CA008093C900089508956F9258
:100200007F928F929F92AF92BF92CF92DF92EF92A6
:10021000FF920F931F93CF93DF9345E04A95F1F739
:1002200000009DB59EB521E030E0E90102C0CC0F91
:10023000DD1F8A95E2F7CC2EC094BC2E0F2EF1E183
:10024000DF2EF02D20E030E0E9E0F1E080EC90E0FE
:1002500006EC10E00F2EF8EC6F2E712CF02D6EECEA
:1002600070E0ABE0B1E06894AA24A4F8408141FFBB
:1002700015C0E301488144232CF5F0905B02EB01AB
:10028000E8804F2D50E0445A5D4FEA01E882D6E104
:10029000DF15C0F0F394F0925B0214C0EC014881CA
:1002A000442384F4F0905B02E801E8804F2D50E095
:1002B000445A5D4FEA01E882D6E1DF1518F0F39465
:1002C000F0925B02C7E0DCE02197F1F700C000008C
:1002D000408141FF15C0E301488144232CF5F09093
:1002E0005B02EB01E8804F2D50E0445A5D4FEA017C
:1002F000E882D6E1DF15C0F0F394F0925B0214C0FF
:10030000EC014881442384F4F0905B02E801E8802A
:100310004F2D50E0445A5D4FEA01E882D6E1DF15E7
:1003200018F0F394F0925B024C914C214C93AEBCCC
:10033000408141FF15C0E301488144232CF5F09032
:100340005B02EB01E8804F2D50E0445A5D4FEA011B
:10035000E882D6E1DF15C0F0F394F0925B0214C09E
:10036000EC014881442384F4F0905B02E801E880CA
:100370004F2D50E0445A5D4FEA01E882D6E1DF1587
:1003800018F0F394F0925B020DB407FEFDCF1EBC93
:10039000408141FF15C0E301488144232CF5F090D2
:1003A0005B02EB01E8804F2D50E0445A5D4FEA01BB
:1003B000E882D6E1DF15C0F0F394F0925B0214C03E
:1003C000EC014881442384F4F0905B02E801E8806A
:1003D0004F2D50E0445A5D4FEA01E882D6E1DF1527
:1003E00018F0F394F0925B020DB407FEFDCF4EB50A
:1003F00050E0542F44271EBCF080F1FE15C0E301ED
:10040000F880FF202CF590905B02EB018880E92CAE
:10041000F12CE701C45ADD4F8882D6E1D915C0F02E
:10042000939490925B0214C0EC01F880FF2084F456
:1004300090905B02E8018880E92CF12CE701C45A16
:10044000DD4F8882D6E1D91518F0939490925B0223
:100450000DB407FEFDCFFEB44F29F080F1FE15C0AC
:10046000E301F880FF202CF590905B02EB0188807F
:10047000E92CF12CE701C45ADD4F8882D6E1D91569
:10048000C0F0939490925B0214C0EC01F880FF20BE
:1004900084F490905B02E8018880E92CF12CE7015C
:1004A000C45ADD4F8882D6E1D91518F09394909202
:1004B0005B0256954795529542954F7045275F7060
:1004C0004527240F351F4C914B294C93DA9409F0A2
:1004D000CDCEA1EFB0EF0E947812929582958F70E9
:1004E00089279F708927DF91CF911F910F91FF90EE
:1004F000EF90DF90CF90BF90AF909F908F907F90C4
:100500006F90089581E080934402A198EBE0F1E0C0
:100510008081816080838AEB8A95F1F700C00E9418
:100520004E1287E084B981E58CBDEAEBEA95F1F7DC
:1005300000C00E944E126894442444F80F2EF7E243
:100540005F2EF02D0F2EFCE5EF2EF2E0FF2EF02DAA
:1005500009E011E00F2EF0ECAF2EB12CF02D0F2E94
:10056000F6EC8F2E912CF02D0F2EF8ECCF2ED12CF7
:10057000F02D0F2EFEEC6F2E712CF02D82E00E94DC
:10058000FF009093480280934702C42DD52D80919F
:100590005B02882301F180914402882321F0F70156
:1005A0008081833051F4F701808190E02091A7028F
:1005B0003091A802281739071CF410925B020BC077
:1005C000FC01EE0FFF1FE755FD4F0190F081E02D7C
:1005D0001995811102C0219706C0813011F4259729
:1005E00002C0CC52D140F801808181FF13C0F601D6
:1005F000808188230CF580915B02F3019081E82FC4
:10060000F0E0E45AFD4F90838731B0F48F5F809320
:100610005B0212C0F5018081882374F480915B0233
:10062000F4019081E82FF0E0E45AFD4F9083873188
:1006300018F48F5F80935B021C161D060CF4A7CF85
:1006400084E00E94FF009093460280934502C42DEF
:10065000D52D80915B02882301F18091440288238B
:1006600021F0F7018081833051F4F701808190E01F
:100670002091A7023091A802281739071CF4109284
:100680005B020BC0FC01EE0FFF1FE755FD4F019011
:10069000F081E02D1995811102C0219706C08130AB
:1006A00011F4259702C0CC52D140F801808181FF1E
:1006B00013C0F601808188230CF580915B02F30161
:1006C0009081E82FF0E0E45AFD4F90838731B0F439
:1006D0008F5F80935B0212C0F5018081882374F4E0
:1006E00080915B02F4019081E82FF0E0E45AFD4F25
:1006F0009083873118F48F5F80935B021C161D0670
:100700000CF4A7CF3BCF80E596E09093AA028093AC
:10071000A9028BE696E09093AC028093AB028EE147
:1007200096E09093AE028093AD0280E298E09093C1
:10073000B0028093AF0282E892E09093B20280937D
:10074000B1028DE297E09093B4028093B3028CE300
:1007500098E09093B6028093B5028EE798E090936C
:10076000B8028093B70281EE98E09093BA0280932A
:10077000B9028FEF98E09093BC028093BB0289E1AD
:100780009AE09093BE028093BD0283E39BE0909336
:10079000C0028093BF028BE090E09093A802809308
:1007A000A7028CEC90E09093C4028093C3028EEC7D
:1007B00090E09093C6028093C50280ED90E0909304
:1007C000C8028093C70282ED90E09093CA028093A2
:1007D000C90284ED90E09093CC028093CB028AED25
:1007E00090E09093CE028093CD020E94E00082E0E0
:1007F00083BB85E980930A0184E180930B0180919A
:10080000090185FF0E948202EBE0F1E080818160B6
:1008100080832AEB2A95F1F700C087E084B981E54F
:100820008CBD8AEB8A95F1F700C082E00E94FF0040
:10083000909348028093470284E00E94FF009093C7
:10084000460280934502EBE0F1E080818E7F808359
:100850009FEF23EC89E0915020408040E1F700C0F9
:10086000000088E084B984E68CBDA19A269A989A03
:10087000EAE0F1E08081806480830895CF93DF9384
:100880002091090121FD0AC027C001968217930714
:10089000C1F1813345E7940768F035C0A82FB92F1F
:1008A00050E080E090E0E8ECF0E0CEECD0E09C019D
:1008B0002756354C4081442344F728815F5F2D93B0
:1008C0005230A9F722C001968217930701F18133B4
:1008D00045E7940768F01DC0A82FB92F50E080E0CD
:1008E00090E0E0ECF0E0C6ECD0E09C012756354CFF
:1008F0004081442344F728815F5F2D935230A9F74C
:100900000AC080E009C080E007C0852F05C080E0F4
:1009100003C080E001C0852FDF91CF910895CF9370
:10092000DF932091090121FD0AC027C0019682179B
:100930009307C1F1813345E7940768F035C0A82FCC
:10094000B92F50E080E090E0E8ECF0E0CEECD0E0B1
:100950009C012756354C4081442344F728815F5F32
:100960002D935D30A9F722C001968217930701F1FC
:10097000813345E7940768F01DC0A82FB92F50E0D8
:1009800080E090E0E0ECF0E0C6ECD0E09C0127567F
:10099000354C4081442344F728815F5F2D935D30BF
:1009A000A9F70AC080E009C080E007C0852F05C014
:1009B00080E003C080E001C0852FDF91CF910895D2
:1009C0008091090181FF13C0E8ECF0E0808185FF90
:1009D000FDCF809159028093CE00E8ECF0E0808159
:1009E00085FFFDCF80915A028093CE000895E0EC00
:1009F000F0E0808185FFFDCF809159028093C60091
:100A0000E0ECF0E0808185FFFDCF80915A02809379
:100A1000C6000895FC01DB0113968C911397808327
:100A200012968C911297818311968C9111978283E3
:100A30008C9183830895FC01808190E0982F882712
:100A40002181822B0895FC01808190E0982F8827D6
:100A50002181822B08958FEF8093590280935A024F
:100A60000895442349F04091590250E0542F4427FF
:100A700020915A02422B02C04FEF5FEF1616170665
:100A8000D4F4FC01860F971F78E060E02191522793
:100A9000272F362F55233CF4440F551FA1E24A2738
:100AA000A0E15A2702C0440F551F2150310991F788
:100AB000E817F90759F75093590240935A020895DD
:100AC000CF93DF93EC0141E061E070E00E943105DB
:100AD00080915902898380915A028A838091090109
:100AE00081FF0EC0DE0193E0E8ECF0E0CEECD0E058
:100AF000808185FFFDCF8D9188839150C9F70DC00E
:100B0000DE0193E0E0ECF0E0C6ECD0E0808185FF10
:100B1000FDCF8D9188839150C9F7DF91CF910895D2
:100B2000CF93DF93EC0141E064E070E00E94310577
:100B3000809159028C8380915A028D8380910901A2
:100B400081FF0EC0DE0196E0E8ECF0E0CEECD0E0F4
:100B5000808185FFFDCF8D9188839150C9F70DC0AD
:100B6000DE0196E0E0ECF0E0C6ECD0E0808185FFAD
:100B7000FDCF8D9188839150C9F7DF91CF91089572
:100B8000FB012181FC012083FB012081FC012183E9
:100B9000FA012181FC012283FA012081FC012383D7
:100BA0000E9490050895EF92FF920F931F93CF93A9
:100BB000DF93EC017A0189010E940A05B701CE0199
:100BC00004960E940A05B801CE0108960E940A0503
:100BD00041E06CE070E0CE010E9431058091590245
:100BE0008C8780915A028D878091090181FF0EC008
:100BF000DE019EE0E8ECF0E0CEECD0E0808185FF05
:100C0000FDCF8D9188839150C9F70DC0DE019EE024
:100C1000E0ECF0E0C6ECD0E0808185FFFDCF8D9167
:100C200088839150C9F7DF91CF911F910F91FF9069
:100C3000EF90089540E00E943105089580915B0295
:100C4000833060F010925B0261E070E08CE592E02E
:100C50000E941A061092020281E0089580E0089531
:100C60000F931F93CF93DF938C01EB018CE592E000
:100C70000E941A06F801EC0FFD1F90818091590225
:100C8000981308C081E0218190915A02291719F028
:100C900080E001C080E0DF91CF911F910F91089516
:100CA00080915B02833098F010925B0261E070E00B
:100CB0008CE592E00E943006882359F080E480930E
:100CC0005C028CE592E00E94600583E0089581E07B
:100CD000089582E00895CF92DF92EF92FF920F93F2
:100CE0001F93CF93DF9380915B02843108F4A9C0F6
:100CF00010925B0262E170E08CE592E00E943006A7
:100D0000882309F4A0C040916B0250E0542F44277F
:100D100080916A02482B5093010240930002209177
:100D20006D0230E0322F222780916C02282B309305
:100D30005802209357026091A1027091A202809103
:100D4000A3029091A402DB01A81BB90BCD018F3F38
:100D5000BFEF9B0709F468C0E0919F02F091A002E9
:100D600031978E179F0709F461C0ECE5F2E08181AD
:100D70009281A381B4810F2EF3E1FF2EF02DF69E18
:100D8000E001F79ED00D11246091A5027091A6029A
:100D9000C60FD71F88839983AA83BB830F2EF1EADE
:100DA000CF2EF2E0DF2EF02DE60168817981F69EEC
:100DB0008001F79E100D112485819681A781B08551
:100DC000E090A502F090A602E00EF11EE7018C83F0
:100DD0009D83AE83BF838091A5029091A602080FE8
:100DE000191F81859285A385B485E8018887998735
:100DF000AA87BB8785858C875E874D87388B2F8731
:100E00001A8A198A6F5F7F4FF60171836083809120
:100E10009F029091A0026817790750F01092A202E9
:100E20001092A10281E005C080E003C080E001C013
:100E300081E080935C028CE592E00E94600583E093
:100E400003C081E001C082E0DF91CF911F910F913B
:100E5000FF90EF90DF90CF900895EF92FF920F9365
:100E60001F93CF93DF9380915B028D3008F4DCC039
:100E700010925B026BE070E08CE592E00E9430061D
:100E8000882309F4D3C050916502C09166024C2FAB
:100E90004370433009F4CCC01092A2021092A10218
:100EA0001092A4021092A3028091570290915802CE
:100EB0002091000230910102609178026130E9F4E2
:100EC0006091770270E0DB01AA0FBB1FAA0FBB1F66
:100ED0006A0F7B1FDB01AD5FBD4FED91FC91119758
:100EE000D08161E070E012960C9002C0660F771F0F
:100EF0000A94E2F760956D2360835D3008F090C03E
:100F00005093770251E0509374026C2F70E00F2ED3
:100F1000F8E7EF2EF2E0FF2EF02DC3FB552750F936
:100F2000F7015083C4FB552750F95093760250E0E7
:100F3000C470D0E0A2E0B0E0A41BB50B8E0102C0EB
:100F400015950795AA95E2F70093850230938702DD
:100F50002093860290938902809388026095709511
:100F600064707727A5E0B0E0A41BB50B02C07595AF
:100F70006795AA95E2F76093980230939A022093BE
:100F8000990290939C0280939B028CE0A9E7B2E0C7
:100F9000ED01E82F1992EA95E9F7ACE8B2E0ED012E
:100FA00019928A95E9F7440F551F440F551F9A016E
:100FB00027583D4FCCE5D2E089819A81AB81BC8135
:100FC000F90180839183A283B38344575D4F8D8160
:100FD0009E81AF81B885EA0188839983AA83BB8308
:100FE000F70180818823E1F08091770290E0DC01B5
:100FF000AA0FBB1FAA0FBB1FA80FB91FAD5FBD4F24
:10100000ED91FC911197408121E030E0C9011296E9
:101010000C9002C0880F991F0A94E2F7842B8083FA
:101020000E94E00483E005C081E003C082E001C0CB
:1010300082E0DF91CF911F910F91FF90EF90089583
:1010400080915B028330A0F010925B0261E070E05F
:101050008CE592E00E943006882361F045E452E07E
:1010600067E472E08CE592E00E94C00583E0089599
:1010700081E0089582E0089580915B028330D0F191
:1010800010925B0261E070E08CE592E00E94300615
:10109000882391F11092A2021092A1021092A40250
:1010A0001092A3021092740210927502809178023D
:1010B0008130E1F48091770290E0DC01AA0FBB1F40
:1010C000AA0FBB1FA80FB91FAD5FBD4FED91FC91DB
:1010D0001197208181E090E012960C9002C0880F59
:1010E000991F0A94E2F78095822380830E94E0048E
:1010F00083E0089581E0089582E0089580915B0285
:101100008F3008F45AC010925B026DE070E08CE5FD
:1011100092E00E943006882309F451C020915D02BC
:1011200080915E0290E0A0E0B0E0DC019927882782
:10113000B22B20916002822B20915F02922B809330
:10114000510290935202A0935302B0935402209103
:1011500061028091620290E0A0E0B0E0DC0199279A
:101160008827B22B20916402822B20916302922B5C
:1011700080934D0290934E02A0934F02B093500281
:10118000209165028091660290E0A0E0B0E0DC0171
:1011900099278827B22B20916802822B2091670221
:1011A000922B8093490290934A02A0934B02B093F2
:1011B0004C020E94E00483E0089581E0089582E0FB
:1011C000089580915B028330B0F010925B0261E081
:1011D00070E08CE592E00E943006882371F029E4EB
:1011E00032E04DE452E061E572E08CE592E00E946D
:1011F000D30583E0089581E0089582E008951F9368
:10120000CF93DF9380915B02843008F40BC110927E
:101210005B0262E070E08CE592E00E943006882379
:1012200009F402C180915D02882309F47BC02091FA
:10123000A1023091A2028091A3029091A402A9017F
:10124000481B590BCA018F3F5FEF950709F462C035
:1012500040919F025091A002415051098417950777
:1012600009F45AC0C0E0D0E088819981AA81BB818D
:1012700013E1129FA001139F500D1124E091A502CC
:10128000F091A602E40FF51F80839183A283B383BC
:1012900021EA32E0F90140815181149FB001159F8C
:1012A000700D112488819981AA81BB81E091A502EA
:1012B000F091A602E60FF71F84839583A683B78378
:1012C000E091A502F091A602E60FF71F88819981AF
:1012D000AA81BB8180879187A287B3878881848711
:1012E00016861586108A178681E090E0928B818B96
:1012F000CA010196F9019183808320919F02309168
:10130000A0028217930750F01092A2021092A1023D
:1013100081E005C080E003C080E001C081E08093EF
:101320005C027AC02091A1023091A2028091A302B6
:101330009091A402A901481B590BCA018F3F5FEF8E
:10134000950709F462C040919F025091A00241505C
:1013500051098417950709F45AC0C0E0D0E088818C
:101360009981AA81BB8113E1129FA001139F500DA7
:101370001124E091A502F091A602E40FF51F8083ED
:101380009183A283B38321EA32E0F9014081518144
:10139000149FB001159F700D112488819981AA8135
:1013A000BB81E091A502F091A602E60FF71F8483AE
:1013B0009583A683B783E091A502F091A602E60F7C
:1013C000F71F88819981AA81BB8180879187A28735
:1013D000B3878881848716861586108A178682E0EF
:1013E00090E0928B818BCA010196F90191838083F1
:1013F00020919F023091A0028217930750F0109223
:10140000A2021092A10281E005C080E003C080E04A
:1014100001C081E080935C028CE592E00E9460054F
:1014200083E003C081E001C082E0DF91CF911F9192
:1014300008951F93CF93DF9380915B02843008F46B
:101440000BC110925B0262E070E08CE592E00E94BA
:101450003006882309F402C180915D02882309F4D3
:101460007BC02091A1023091A2028091A3029091B1
:10147000A402A901481B590BCA018F3F5FEF9507D2
:1014800009F462C040919F025091A002415051095D
:101490008417950709F45AC0C0E0D0E0888199818B
:1014A000AA81BB8113E1129FA001139F500D11244B
:1014B000E091A502F091A602E40FF51F80839183CD
:1014C000A283B38321EA32E0F90140815181149F64
:1014D000B001159F700D112488819981AA81BB816B
:1014E000E091A502F091A602E60FF71F8483958391
:1014F000A683B783E091A502F091A602E60FF71F3D
:1015000088819981AA81BB8180879187A287B387CF
:101510008881848716861586108A178683E090E076
:10152000928B818BCA010196F9019183808320916E
:101530009F023091A0028217930750F01092A202EE
:101540001092A10281E005C080E003C080E001C0EC
:1015500081E080935C027AC02091A1023091A202C6
:101560008091A3029091A402A901481B590BCA01C2
:101570008F3F5FEF950709F462C040919F02509141
:10158000A002415051098417950709F45AC0C0E0E0
:10159000D0E088819981AA81BB8113E1129FA001CB
:1015A000139F500D1124E091A502F091A602E40FC3
:1015B000F51F80839183A283B38321EA32E0F9018E
:1015C00040815181149FB001159F700D11248881B5
:1015D0009981AA81BB81E091A502F091A602E60F54
:1015E000F71F84839583A683B783E091A502F091CA
:1015F000A602E60FF71F88819981AA81BB818087A7
:101600009187A287B3878881848716861586108A7A
:10161000178684E090E0928B818BCA010196F901D4
:101620009183808320919F023091A00282179307BB
:1016300050F01092A2021092A10281E005C080E059
:1016400003C080E001C081E080935C028CE592E001
:101650000E94600583E003C081E001C082E0DF9169
:10166000CF911F9108951F93CF93DF9380915B02D9
:10167000843008F40BC110925B0262E070E08CE5EC
:1016800092E00E943006882309F402C180915D0235
:10169000882309F47BC02091A1023091A20280919D
:1016A000A3029091A402A901481B590BCA018F3FC4
:1016B0005FEF950709F462C040919F025091A0022C
:1016C000415051098417950709F45AC0C0E0D0E091
:1016D00088819981AA81BB8113E1129FA001139F88
:1016E000500D1124E091A502F091A602E40FF51F20
:1016F00080839183A283B38321EA32E0F9014081A0
:101700005181149FB001159F700D1124888199811A
:10171000AA81BB81E091A502F091A602E60FF71F16
:1017200084839583A683B783E091A502F091A602F6
:10173000E60FF71F88819981AA81BB8180879187F5
:10174000A287B3878881848716861586108A1786B4
:1017500085E090E0928B818BCA010196F90191831B
:10176000808320919F023091A0028217930750F04E
:101770001092A2021092A10281E005C080E003C095
:1017800080E001C081E080935C027AC02091A102D8
:101790003091A2028091A3029091A402A901481B5A
:1017A000590BCA018F3F5FEF950709F462C0409162
:1017B0009F025091A002415051098417950709F4E6
:1017C0005AC0C0E0D0E088819981AA81BB8113E131
:1017D000129FA001139F500D1124E091A502F091DA
:1017E000A602E40FF51F80839183A283B38321EACD
:1017F00032E0F90140815181149FB001159F700DB5
:10180000112488819981AA81BB81E091A502F09180
:10181000A602E60FF71F84839583A683B783E09122
:10182000A502F091A602E60FF71F88819981AA818F
:10183000BB8180879187A287B3878881848716863A
:101840001586108A178686E090E0928B818BCA01FC
:101850000196F9019183808320919F023091A0022B
:101860008217930750F01092A2021092A10281E019
:1018700005C080E003C080E001C081E080935C028D
:101880008CE592E00E94600583E003C081E001C026
:1018900082E0DF91CF911F9108950E943006882346
:1018A000B1F08091090181FF09C0E8ECF0E080818E
:1018B00085FFFDCF81E08093CE000895E0ECF0E05D
:1018C000808185FFFDCF81E08093C600089580E090
:1018D0000895AF92BF92DF92EF92FF920F931F9302
:1018E000CF93DF93EBE0F1E020812068208320910B
:1018F0002B022EBDFC010F2EF1E1FF2EF02DA9E0F1
:10190000B1E020EC30E006EC10E00F2EF8ECAF2E4A
:10191000B12CF02D6EEC70E041910DB407FEFDCFBF
:101920005EB54EBD4C9141FF15C0E5014881442391
:101930002CF5E0905B02EB01D8804E2D50E0445A2C
:101940005D4FEA01D882D6E1DE15C0F0E394E09263
:101950005B0214C0E9014881442384F4E0905B02F7
:10196000E801D8804E2D50E0445A5D4FEA01D882FC
:10197000D6E1DE1518F0E394E0925B02FA9461F68A
:1019800020913D020DB407FEFDCF3EB52EBD209146
:10199000090121FF13C02091C80022230CF52091DA
:1019A0005B023091CE00E22FF0E0E45AFD4F30832D
:1019B0002731B0F42F5F20935B0212C02091C0004A
:1019C000222374F420915B023091C600E22FF0E0F4
:1019D000E45AFD4F3083273118F42F5F20935B02C8
:1019E0000DB407FEFDCFEBE0F1E020812F772083DF
:1019F0002091550220935602FC0184858093550264
:101A0000DF91CF911F910F91FF90EF90DF90BF90EA
:101A1000AF9008950F931F93CF93DF93EBE0F1E026
:101A200080818068808380912B028EBD81E090E070
:101A3000A9E0B1E020EC30E066EC70E0C8ECD0E06A
:101A40004EEC50E0FC01E55DFD4FE0810DB407FE7A
:101A5000FDCFFEB5EEBDEC91E1FF12C0E881EE23B3
:101A60000CF510915B02FA010081E12FF0E0E45ADD
:101A7000FD4F00831731B0F41F5F10935B0212C05B
:101A8000F9011081112374F410915B02FB010081B4
:101A9000E12FF0E0E45AFD4F0083173118F41F5F87
:101AA00010935B0201968E30910561F680910102E0
:101AB0000DB407FEFDCF9EB58EBD8091090181FF5B
:101AC00013C08091C80088230CF580915B0290912F
:101AD000CE00E82FF0E0E45AFD4F90838731B0F458
:101AE0008F5F80935B0212C08091C000882374F4E2
:101AF00080915B029091C600E82FF0E0E45AFD4F20
:101B00009083873118F48F5F80935B02809100028D
:101B10000DB407FEFDCF9EB58EBD8091090181FFFA
:101B200013C08091C80088230CF580915B029091CE
:101B3000CE00E82FF0E0E45AFD4F90838731B0F4F7
:101B40008F5F80935B0212C08091C000882374F481
:101B500080915B029091C600E82FF0E0E45AFD4FBF
:101B60009083873118F48F5F80935B0280915802D5
:101B70000DB407FEFDCF9EB58EBD8091090181FF9A
:101B800013C08091C80088230CF580915B0290916E
:101B9000CE00E82FF0E0E45AFD4F90838731B0F497
:101BA0008F5F80935B0212C08091C000882374F421
:101BB00080915B029091C600E82FF0E0E45AFD4F5F
:101BC0009083873118F48F5F80935B028091570276
:101BD0000DB407FEFDCF9EB58EBD8091090181FF3A
:101BE00013C08091C80088230CF580915B0290910E
:101BF000CE00E82FF0E0E45AFD4F90838731B0F437
:101C00008F5F80935B0212C08091C000882374F4C0
:101C100080915B029091C600E82FF0E0E45AFD4FFE
:101C20009083873118F48F5F80935B0280913D022F
:101C30000DB407FEFDCF9EB58EBD8091090181FFD9
:101C400013C08091C80088230CF580915B029091AD
:101C5000CE00E82FF0E0E45AFD4F90838731B0F4D6
:101C60008F5F80935B0212C08091C000882374F460
:101C700080915B029091C600E82FF0E0E45AFD4F9E
:101C80009083873118F48F5F80935B020DB407FE59
:101C9000FDCFEBE0F1E080818F778083DF91CF9102
:101CA0001F910F9108950E9483030F2EF9E08F2E4C
:101CB00099249394F02D00EC10E00F2EF8EC6F2E89
:101CC000712CF02D0F2EFCE54F2EF2E05F2EF02D43
:101CD0008EB5853A09F08FC31EBC8DB58EB50DB497
:101CE00007FEFDCF2EB530E0D4018C9181FF14C0EA
:101CF000F301808188231CF580915B02AEECB0E09B
:101D00009C91E82FF0E0E45AFD4F90838731B8F4BE
:101D10008F5F80935B0213C0F801808188237CF47D
:101D200080915B02A6ECB0E09C91E82FF0E0E45AD1
:101D3000FD4F9083873118F48F5F80935B020DB461
:101D400007FEFDCF8EB5382BF401808181FF14C0D2
:101D5000D3018C9188231CF580915B02EEECF0E0BE
:101D60009081E82FF0E0E45AFD4F90838731B8F47A
:101D70008F5F80935B0213C0D8018C9188237CF421
:101D800080915B02E6ECF0E09081E82FF0E0E45A0D
:101D9000FD4F9083873118F48F5F80935B022F5F34
:101DA0003F4F369527958091560280FF15C0809150
:101DB000510290915202A0915302B0915402820FAD
:101DC000931FA11DB11D8093510290935202A093C5
:101DD0005302B093540214C0809151029091520268
:101DE000A0915302B0915402821B930BA109B10937
:101DF0008093510290935202A0935302B0935402E5
:101E00000DB407FEFDCF2EB530E0D4018C9181FFDB
:101E100014C0F301808188231CF580915B02AEEC35
:101E2000B0E09C91E82FF0E0E45AFD4F90838731B9
:101E3000B8F48F5F80935B0213C0F8018081882320
:101E40007CF480915B02A6ECB0E09C91E82FF0E07E
:101E5000E45AFD4F9083873118F48F5F80935B02C3
:101E60000DB407FEFDCF8EB5382BF401808181FFC4
:101E700014C0D3018C9188231CF580915B02EEEC99
:101E8000F0E09081E82FF0E0E45AFD4F9083873135
:101E9000B8F48F5F80935B0213C0D8018C918823C4
:101EA0007CF480915B02E6ECF0E09081E82FF0E0BA
:101EB000E45AFD4F9083873118F48F5F80935B0263
:101EC0002F5F3F4F369527958091560281FF15C0B1
:101ED00080914D0290914E02A0914F02B09150021C
:101EE000820F931FA11DB11D80934D0290934E024E
:101EF000A0934F02B093500214C080914D02909174
:101F00004E02A0914F02B0915002821B930BA10987
:101F1000B10980934D0290934E02A0934F02B0936B
:101F200050020DB407FEFDCF2EB530E0D4018C91E8
:101F300081FF14C0F301808188231CF580915B022E
:101F4000AEECB0E09C91E82FF0E0E45AFD4F9083B6
:101F50008731B8F48F5F80935B0213C0F8018081F2
:101F600088237CF480915B02A6ECB0E09C91E82F82
:101F7000F0E0E45AFD4F9083873118F48F5F80932F
:101F80005B020DB407FEFDCF8EB5382BF4018081C6
:101F900081FF14C0D3018C9188231CF580915B02D2
:101FA000EEECF0E09081E82FF0E0E45AFD4F9083F2
:101FB0008731B8F48F5F80935B0213C0D8018C9196
:101FC00088237CF480915B02E6ECF0E09081E82FBE
:101FD000F0E0E45AFD4F9083873118F48F5F8093CF
:101FE0005B022F5F3F4F369527958091560282FF07
:101FF00015C08091490290914A02A0914B02B09184
:102000004C02821B930BA109B10980934902909362
:102010004A02A0934B02B0934C0214C08091490233
:1020200090914A02A0914B02B0914C02820F931FF3
:10203000A11DB11D8093490290934A02A0934B02C7
:10204000B0934C020DB407FEFDCF8EB5A4E7B2E00D
:102050008C91882309F47AC0809176028823D1F08C
:102060008091770290E0FC01EE0FFF1FEE0FFF1F43
:10207000E80FF91FED5FFD4FA081B1818C9190E0D9
:10208000028002C0959587950A94E2F7B1E08B270C
:10209000817017C08091770290E0FC01EE0FFF1F66
:1020A000EE0FFF1FE80FF91FED5FFD4FA081B1811B
:1020B0008C9190E0028002C0959587950A94E2F792
:1020C0008170882389F080917502882329F08CE83B
:1020D00092E00E94690CBFC181E0809375028CE898
:1020E00092E00E94690CB7C180917502882349F182
:1020F000E4E7F2E01082109275028091780281305C
:10210000E9F48091770290E0DC01AA0FBB1FAA0FCF
:10211000BB1F8A0F9B1FDC01AD5FBD4FED91FC9192
:102120001197208181E090E012960C9002C0880FF8
:10213000991F0A94E2F78095822380830E940A0DFA
:102140008AC189E792E00E94690C85C12091A302AF
:102150003091A4028091A1029091A202821793076C
:1021600019F40E940A0D77C143E1429FC001439FC9
:10217000900D1124E091A502F091A602E80FF91F3D
:102180002F5F3F4F3093A4022093A30280919F02C0
:102190009091A0022817390720F01092A402109203
:1021A000A30281899289892B21F4CF010E94690CB5
:1021B00036C0D4018C9181FF14C0D3018C91882347
:1021C0001CF580915B02AEECB0E09C91A82FB0E0D2
:1021D000A45ABD4F9C938731B8F48F5F80935B0204
:1021E00013C0D8018C9188237CF480915B02A6EC0B
:1021F000B0E09C91A82FB0E0A45ABD4F9C938731CA
:1022000018F48F5F80935B020188F289E02DEE0F56
:10221000FF1FEF53FD4F0190F081E02D1995809144
:10222000A3029091A4022091A1023091A20228174A
:10223000390709F410C143E1489F9001499F300DCF
:102240001124E091A502F091A602E20FF31F21896B
:102250003289232B09F4FFC0C3EAD2E00F2EFFE935
:10226000CF2EF2E0DF2EF02D0F2EF1EAEF2EF2E06E
:10227000FF2EF02D0F2EF5EAAF2EF2E0BF2EF02D3F
:102280000F2EF3E13F2EF02D0FC0389EF001399E46
:10229000F00D1124D5012D913C91E20FF31F2189FE
:1022A0003289232B09F4D7C0D4012C9121FF14C00B
:1022B000D3012C9122231CF520915B02AEECB0E0FF
:1022C0003C91A22FB0E0A45ABD4F3C932731B8F403
:1022D0002F5F20935B0213C0D8012C9122237CF442
:1022E00020915B02A6ECB0E03C91A22FB0E0A45A92
:1022F000BD4F3C93273118F42F5F20935B0201966A
:1023000099838883D6012D913C918217930710F011
:10231000198218820188F289E02DEE0FFF1FEF531A
:10232000FD4F0190F081E02D199588819981F70189
:10233000208131812817390709F0A7CF8CC08091FF
:102340005B02882301F180914402882321F0D201AD
:102350008C91833051F4F201808190E02091A702AA
:102360003091A802281739071CF410925B020BC0A9
:10237000FC01EE0FFF1FE755FD4F0190F081E02DAE
:102380001995811102C0219706C0813011F425975B
:1023900002C0CC52D140D4018C9181FF14C0F30112
:1023A000808188231CF580915B02AEECB0E09C91AB
:1023B000E82FF0E0E45AFD4F90838731B8F48F5F47
:1023C00080935B0213C0F801808188237CF48091A4
:1023D0005B02A6ECB0E09C91E82FF0E0E45AFD4FE0
:1023E0009083873118F48F5F80935B021C161D0663
:1023F0000CF4A5CF6DCCF401808181FF16C0D30110
:102400008C9188230CF064CC80915B02EEECF0E0C0
:102410009081E82FF0E0E45AFD4F9083873108F077
:1024200057CC8F5F80935B0253CCD8018C9188236B
:102430000CF04ECC80915B02E6ECF0E09081E82F4E
:10244000F0E0E45AFD4F9083873108F041CC8F5F74
:1024500080935B023DCCC0E1D7E271CF88ED9EE076
:102460000E948B129093A6028093A5021092A20262
:102470001092A1021092A4021092A30288EC90E0A4
:102480009093A00280939F021092740210927502A2
:102490008FEF80937702109278020895809109015E
:1024A00081FF13C08091C80088230CF580915B02E6
:1024B0009091CE00E82FF0E0E45AFD4F90838731F1
:1024C000B0F48F5F80935B0208958091C0008823F1
:1024D00074F480915B029091C600E82FF0E0E45A1A
:1024E000FD4F9083873118F48F5F80935B020895CE
:1024F000A29FB001B39FC001A39F700D811D112445
:10250000911DB29F700D811D1124911D089507909A
:10251000F691E02D1994CF93DF938230910510F45A
:1025200082E090E0E091D102F091D20220E030E030
:10253000A0E0B0E0309739F1408151814817590748
:10254000B8F04817590771F482819381109729F0E8
:1025500013969C938E9312972CC09093D2028093E3
:10256000D10227C02115310531F04217530718F069
:10257000A901DB0101C0EF019A01BD01DF01028069
:10258000F381E02DD7CF21153105F9F0281B390B48
:102590002430310580F48A819B816115710521F019
:1025A000FB019383828304C09093D2028093D10273
:1025B000FE01329644C0FE01E20FF31F8193919316
:1025C00022503109398328833AC02091CF023091BB
:1025D000D002232B41F420914002309141023093EC
:1025E000D0022093CF0220913E0230913F0221156C
:1025F000310541F42DB73EB740914202509143025C
:10260000241B350BE091CF02F091D002E217F307C3
:10261000A0F42E1B3F0B2817390778F0AC014E5F52
:102620005F4F2417350748F04E0F5F1F5093D002BD
:102630004093CF028193919302C0E0E0F0E0CF019C
:10264000DF91CF910895CF93DF93009709F487C06E
:10265000FC01329713821282C091D102D091D20232
:10266000209781F420813181280F391F8091CF027A
:102670009091D0028217930779F5F093D002E093FE
:10268000CF026DC0DE0120E030E0AE17BF0750F48E
:1026900012964D915C9113979D014115510509F1D9
:1026A000DA01F3CFB383A28340815181840F951F58
:1026B0008A179B0771F48D919C911197840F951F38
:1026C00002969183808312968D919C9113979383A8
:1026D00082832115310529F4F093D202E093D102CF
:1026E0003EC0D9011396FC93EE9312974D915D91E4
:1026F000A40FB51FEA17FB0779F480819181840F3D
:10270000951F0296D90111969C938E938281938195
:1027100013969C938E931297E0E0F0E08A819B8160
:10272000009719F0FE01EC01F9CFCE010296288145
:102730003981820F931F2091CF023091D002281748
:10274000390769F4309729F41092D2021092D1021D
:1027500002C013821282D093D002C093CF02DF91C5
:08276000CF910895F894FFCF1A
:1027680001E0012C00052D0032000533002C000388
:102778002D00000103010100010401010001050110
:102788000100010601012300042400A50242F00013
:102798000242F0000242F000E02F802F805A000031
:0427A800D3028000D8
:00000001FF
